:060000000200D30204928D
:03000B000201A44B
:03001B000202C717
:0300230002032EA7
:0300330002049331
:1000D30075812FC2AFC2CC75CA1075C90075920065
:1000E30075910075B20075B1007590FF75B0FF1280
:1000F300052AE570B4AA028018757F00757D007526
:100103007E00757C01757B00757A007579007570CA
:10011300AA12013A12016DD28CD2A912017CC28EAD
:10012300C2ABC2A8D2885387DF75FF03E57F1204F1
:1001330016D2AED2AF80FEC0D0C000C0018500D0C1
:10014300756F00756E00756D00756C00756B0075CD
:100153006A0078657905760008D9FB755C00755BE4
:1001630000C201D001D000D0D022538E7F5389F03A
:10017300758AB0758C3CC28D22538EBF53890F751F
:100183008B6A758DFFC28F22755C00755B00759855
:1001930050438E01538EFB75D7F375D6FF438E10F4
:1001A30022C0E0C0D0C082C08375D008900555122C
:1001B30003E1E57960051579020284C2CC300103BD
:1001C300020284E56FB46406756F00120469E56D7D
:1001D300600914605914606414607330B243E56EAF
:1001E300B40A38756E00756E00E56A602E9005835B
:1001F3007A007800E875F005A4FA7965AB6AEA93AA
:10020300977014090ADBF7900592E823F893C80462
:10021300938883F582E47308B803D9056E056F806C
:100223005E756E00756F00056D756C00805120B2B0
:1002330004056C804A056D756B008043056B30B215
:1002430009E56BB41039056D8035156D8031A86CE7
:10025300756C00E56AB405028022E8C3940A50086D
:10026300E8C39401500D80147465256AF87602057D
:100273006A80097465256AF87601056A756D0080E0
:1002830000D083D082D0D0D0E032E57F12041602B2
:100293000284E5797021E57D457E701B757978D2FE
:1002A300CC757D27757E10757C01757A0012040468
:1002B300057FE57F1204160202847400F57F1204A1
:1002C30016020284C0E0C0D0E57D457E7012E57A57
:1002D300704F757D27757E10757A01637CFF057CF1
:1002E300E57B257C30E7027403B404027400C295F5
:1002F300C297C294C296B40004D295D297B40104B3
:10030300D294D297B40204D294D296B40304D29571
:10031300D296F57BC3E57E9401F57E5002157D8070
:1003230005C28E120409D0D0D0E032C0E0C0D0851F
:1003330010D0309904C299C200309827C298E59929
:10034300B40D14E55C245DF87600785D1203F8E5DE
:100353005D12036B755C00E55C245DF8A699055C92
:10036300535C07D0D0D0E032C083C082B4460E7550
:100373007C01757D00757E64120404804EB4420EC8
:10038300757CFF757D00757E64120404803DB45056
:1003930007757978D2CC8033B44C0A755A007559F5
:1003A30000D2018026B4530FE559F57DE55AF57E59
:1003B300120504C2018014C394304009F994095012
:1003C30004897F800690055F1203E19005501203B4
:1003D300E1D082D083222000FDD200F59922C0E033
:1003E300C083C082E49360061203D9A380F6D0824F
:1003F300D083D0E022C0E0E660041203D908D0E045
:1004030022D28ED2AB22C28EC2ABD295D297D294D5
:10041300D29622C0E0C083C08290056D93F52FD29F
:1004230092207E02C292D291207D02C291D290206C
:100433007C02C290D2B7207B02C2B7D2B4207A0228
:10044300C2B4D2B6207902C2B6D2B5207802C2B500
:10045300D082D083D0E022D292D291D290D2B7D29E
:10046300B4D2B6D2B52212045A1204091205047585
:1004730080FF7590FF75A0FF75B0FF75BB80D2AF8D
:10048300D2A800004387020000C2A812013A223218
:1004930012049F74151204165387DF3275790075A1
:1004A3007A00C2CC1204092275C70075C50075C64F
:1004B3000075C38075C4002275C78475C501858224
:1004C300C48583C375C65A75C6A500E5C21204ABBD
:1004D3002275C78475C5028582C48583C3F5C27539
:1004E300C65A75C6A5001204AB2275C78475C50329
:1004F3008582C48583C375C65A75C6A5001204AB2D
:1005030022C2AFC0E0C083C082C0009004001204C6
:10051300ED7860E61204D408A3B880F7D000D08247
:10052300D083D0E0D2AF22C0E0C0D0C000C083C02F
:100533008275D00090040078701204BBF6A308B84B
:1005430080F7D082D083D000D0D0D0E0224F4B218F
:100553000D0054303A0D0054313A0D00424144200D
:10056300434F4D4D414E44210D00014F12064C2483
:10057300200F0004086072423038214879475871CF
:10058300010000000002000000000201020100025D
:050593008D029502BD80
:00000001FF
